{"abi":[{"type":"constructor","inputs":[{"name":"_name","type":"string","internalType":"string"},{"name":"_symbol","type":"string","internalType":"string"},{"name":"_creator","type":"address","internalType":"address"},{"name":"_usdc","type":"address","internalType":"address"},{"name":"_platform","type":"address","internalType":"address"}],"stateMutability":"nonpayable"},{"type":"function","name":"BASE_PRICE","inputs":[],"outputs":[{"name":"","type":"uint256","internalType":"uint256"}],"stateMutability":"view"},{"type":"function","name":"PLATFORM_FEE_BPS","inputs":[],"outputs":[{"name":"","type":"uint256","internalType":"uint256"}],"stateMutability":"view"},{"type":"function","name":"PRICE_SLOPE","inputs":[],"outputs":[{"name":"","type":"uint256","internalType":"uint256"}],"stateMutability":"view"},{"type":"function","name":"accessTier","inputs":[{"name":"fan","type":"address","internalType":"address"}],"outputs":[{"name":"","type":"string","internalType":"string"}],"stateMutability":"view"},{"type":"function","name":"allowance","inputs":[{"name":"owner","type":"address","internalType":"address"},{"name":"spender","type":"address","internalType":"address"}],"outputs":[{"name":"","type":"uint256","internalType":"uint256"}],"stateMutability":"view"},{"type":"function","name":"approve","inputs":[{"name":"spender","type":"address","internalType":"address"},{"name":"value","type":"uint256","internalType":"uint256"}],"outputs":[{"name":"","type":"bool","internalType":"bool"}],"stateMutability":"nonpayable"},{"type":"function","name":"balanceOf","inputs":[{"name":"account","type":"address","internalType":"address"}],"outputs":[{"name":"","type":"uint256","internalType":"uint256"}],"stateMutability":"view"},{"type":"function","name":"buy","inputs":[{"name":"usdcAmount","type":"uint256","internalType":"uint256"}],"outputs":[],"stateMutability":"nonpayable"},{"type":"function","name":"creator","inputs":[],"outputs":[{"name":"","type":"address","internalType":"address"}],"stateMutability":"view"},{"type":"function","name":"currentPrice","inputs":[],"outputs":[{"name":"","type":"uint256","internalType":"uint256"}],"stateMutability":"view"},{"type":"function","name":"decimals","inputs":[],"outputs":[{"name":"","type":"uint8","internalType":"uint8"}],"stateMutability":"view"},{"type":"function","name":"getReserve","inputs":[],"outputs":[{"name":"","type":"uint256","internalType":"uint256"}],"stateMutability":"view"},{"type":"function","name":"name","inputs":[],"outputs":[{"name":"","type":"string","internalType":"string"}],"stateMutability":"view"},{"type":"function","name":"owner","inputs":[],"outputs":[{"name":"","type":"address","internalType":"address"}],"stateMutability":"view"},{"type":"function","name":"platform","inputs":[],"outputs":[{"name":"","type":"address","internalType":"address"}],"stateMutability":"view"},{"type":"function","name":"renounceOwnership","inputs":[],"outputs":[],"stateMutability":"nonpayable"},{"type":"function","name":"reserve","inputs":[],"outputs":[{"name":"","type":"uint256","internalType":"uint256"}],"stateMutability":"view"},{"type":"function","name":"sell","inputs":[{"name":"tokenAmount","type":"uint256","internalType":"uint256"}],"outputs":[],"stateMutability":"nonpayable"},{"type":"function","name":"symbol","inputs":[],"outputs":[{"name":"","type":"string","internalType":"string"}],"stateMutability":"view"},{"type":"function","name":"totalSupply","inputs":[],"outputs":[{"name":"","type":"uint256","internalType":"uint256"}],"stateMutability":"view"},{"type":"function","name":"transfer","inputs":[{"name":"to","type":"address","internalType":"address"},{"name":"value","type":"uint256","internalType":"uint256"}],"outputs":[{"name":"","type":"bool","internalType":"bool"}],"stateMutability":"nonpayable"},{"type":"function","name":"transferFrom","inputs":[{"name":"from","type":"address","internalType":"address"},{"name":"to","type":"address","internalType":"address"},{"name":"value","type":"uint256","internalType":"uint256"}],"outputs":[{"name":"","type":"bool","internalType":"bool"}],"stateMutability":"nonpayable"},{"type":"function","name":"transferOwnership","inputs":[{"name":"newOwner","type":"address","internalType":"address"}],"outputs":[],"stateMutability":"nonpayable"},{"type":"function","name":"usdc","inputs":[],"outputs":[{"name":"","type":"address","internalType":"address"}],"stateMutability":"view"},{"type":"event","name":"Approval","inputs":[{"name":"owner","type":"address","indexed":true,"internalType":"address"},{"name":"spender","type":"address","indexed":true,"internalType":"address"},{"name":"value","type":"uint256","indexed":false,"internalType":"uint256"}],"anonymous":false},{"type":"event","name":"OwnershipTransferred","inputs":[{"name":"previousOwner","type":"address","indexed":true,"internalType":"address"},{"name":"newOwner","type":"address","indexed":true,"internalType":"address"}],"anonymous":false},{"type":"event","name":"TokensPurchased","inputs":[{"name":"fan","type":"address","indexed":true,"internalType":"address"},{"name":"usdcSpent","type":"uint256","indexed":false,"internalType":"uint256"},{"name":"tokensReceived","type":"uint256","indexed":false,"internalType":"uint256"}],"anonymous":false},{"type":"event","name":"TokensSold","inputs":[{"name":"fan","type":"address","indexed":true,"internalType":"address"},{"name":"tokensSold","type":"uint256","indexed":false,"internalType":"uint256"},{"name":"usdcReceived","type":"uint256","indexed":false,"internalType":"uint256"}],"anonymous":false},{"type":"event","name":"Transfer","inputs":[{"name":"from","type":"address","indexed":true,"internalType":"address"},{"name":"to","type":"address","indexed":true,"internalType":"address"},{"name":"value","type":"uint256","indexed":false,"internalType":"uint256"}],"anonymous":false},{"type":"error","name":"ERC20InsufficientAllowance","inputs":[{"name":"spender","type":"address","internalType":"address"},{"name":"allowance","type":"uint256","internalType":"uint256"},{"name":"needed","type":"uint256","internalType":"uint256"}]},{"type":"error","name":"ERC20InsufficientBalance","inputs":[{"name":"sender","type":"address","internalType":"address"},{"name":"balance","type":"uint256","internalType":"uint256"},{"name":"needed","type":"uint256","internalType":"uint256"}]},{"type":"error","name":"ERC20InvalidApprover","inputs":[{"name":"approver","type":"address","internalType":"address"}]},{"type":"error","name":"ERC20InvalidReceiver","inputs":[{"name":"receiver","type":"address","internalType":"address"}]},{"type":"error","name":"ERC20InvalidSender","inputs":[{"name":"sender","type":"address","internalType":"address"}]},{"type":"error","name":"ERC20InvalidSpender","inputs":[{"name":"spender","type":"address","internalType":"address"}]},{"type":"error","name":"OwnableInvalidOwner","inputs":[{"name":"owner","type":"address","internalType":"address"}]},{"type":"error","name":"OwnableUnauthorizedAccount","inputs":[{"name":"account","type":"address","internalType":"address"}]}],"bytecode":{"object":"0x60e060405234801561000f575f5ffd5b506040516127e13803806127e1833981810160405281019061003191906103e6565b828585816003908161004391906106a5565b50806004908161005391906106a5565b5050505f73ffffffffffffffffffffffffffffffffffffffff168173ffffffffffffffffffffffffffffffffffffffff16036100c6575f6040517f1e4fbdf70000000000000000000000000000000000000000000000000000000081526004016100bd9190610783565b60405180910390fd5b6100d58161017c60201b60201c565b508273ffffffffffffffffffffffffffffffffffffffff1660a08173ffffffffffffffffffffffffffffffffffffffff16815250508173ffffffffffffffffffffffffffffffffffffffff1660808173ffffffffffffffffffffffffffffffffffffffff16815250508073ffffffffffffffffffffffffffffffffffffffff1660c08173ffffffffffffffffffffffffffffffffffffffff1681525050505050505061079c565b5f60055f9054906101000a900473ffffffffffffffffffffffffffffffffffffffff1690508160055f6101000a81548173ffffffffffffffffffffffffffffffffffffffff021916908373ffffffffffffffffffffffffffffffffffffffff1602179055508173ffffffffffffffffffffffffffffffffffffffff168173ffffffffffffffffffffffffffffffffffffffff167f8be0079c531659141344cd1fd0a4f28419497f9722a3daafe3b4186f6b6457e060405160405180910390a35050565b5f604051905090565b5f5ffd5b5f5ffd5b5f5ffd5b5f5ffd5b5f601f19601f8301169050919050565b7f4e487b71000000000000000000000000000000000000000000000000000000005f52604160045260245ffd5b61029e82610258565b810181811067ffffffffffffffff821117156102bd576102bc610268565b5b80604052505050565b5f6102cf61023f565b90506102db8282610295565b919050565b5f67ffffffffffffffff8211156102fa576102f9610268565b5b61030382610258565b9050602081019050919050565b8281835e5f83830152505050565b5f61033061032b846102e0565b6102c6565b90508281526020810184848401111561034c5761034b610254565b5b610357848285610310565b509392505050565b5f82601f83011261037357610372610250565b5b815161038384826020860161031e565b91505092915050565b5f73ffffffffffffffffffffffffffffffffffffffff82169050919050565b5f6103b58261038c565b9050919050565b6103c5816103ab565b81146103cf575f5ffd5b50565b5f815190506103e0816103bc565b92915050565b5f5f5f5f5f60a086880312156103ff576103fe610248565b5b5f86015167ffffffffffffffff81111561041c5761041b61024c565b5b6104288882890161035f565b955050602086015167ffffffffffffffff8111156104495761044861024c565b5b6104558882890161035f565b9450506040610466888289016103d2565b9350506060610477888289016103d2565b9250506080610488888289016103d2565b9150509295509295909350565b5f81519050919050565b7f4e487b71000000000000000000000000000000000000000000000000000000005f52602260045260245ffd5b5f60028204905060018216806104e357607f821691505b6020821081036104f6576104f561049f565b5b50919050565b5f819050815f5260205f209050919050565b5f6020601f8301049050919050565b5f82821b905092915050565b5f600883026105587fffffffffffffffffffffffffffffffffffffffffffffffffffffffffffffffff8261051d565b610562868361051d565b95508019841693508086168417925050509392505050565b5f819050919050565b5f819050919050565b5f6105a66105a161059c8461057a565b610583565b61057a565b9050919050565b5f819050919050565b6105bf8361058c565b6105d36105cb826105ad565b848454610529565b825550505050565b5f5f905090565b6105ea6105db565b6105f58184846105b6565b505050565b5b818110156106185761060d5f826105e2565b6001810190506105fb565b5050565b601f82111561065d5761062e816104fc565b6106378461050e565b81016020851015610646578190505b61065a6106528561050e565b8301826105fa565b50505b505050565b5f82821c905092915050565b5f61067d5f1984600802610662565b1980831691505092915050565b5f610695838361066e565b9150826002028217905092915050565b6106ae82610495565b67ffffffffffffffff8111156106c7576106c6610268565b5b6106d182546104cc565b6106dc82828561061c565b5f60209050601f83116001811461070d575f84156106fb578287015190505b610705858261068a565b86555061076c565b601f19841661071b866104fc565b5f5b828110156107425784890151825560018201915060208501945060208101905061071d565b8683101561075f578489015161075b601f89168261066e565b8355505b6001600288020188555050505b505050505050565b61077d816103ab565b82525050565b5f6020820190506107965f830184610774565b92915050565b60805160a05160c051611fe36107fe5f395f81816105bd01528181610a8d0152610ee401525f818161047e01526109cf01525f81816105990152818161099201528181610a5001528181610b0e01528181610e0c0152610ea80152611fe35ff3fe608060405234801561000f575f5ffd5b5060043610610156575f3560e01c8063715018a6116100c1578063cd3293de1161007a578063cd3293de146103bc578063d96a094a146103da578063dd62ed3e146103f6578063e4849b3214610426578063f2fde38b14610442578063f86325ed1461045e57610156565b8063715018a6146102f85780638da5cb5b1461030257806395d89b41146103205780639d1b464a1461033e578063a9059cbb1461035c578063b7caec871461038c57610156565b8063313ce56711610113578063313ce567146102325780633e413bee146102505780634bde38c81461026e578063539aa77f1461028c57806359bf5d39146102aa57806370a08231146102c857610156565b806302d05d3f1461015a57806306fdde0314610178578063095ea7b314610196578063180fac98146101c657806318160ddd146101e457806323b872dd14610202575b5f5ffd5b61016261047c565b60405161016f919061184f565b60405180910390f35b6101806104a0565b60405161018d91906118d8565b60405180910390f35b6101b060048036038101906101ab9190611959565b610530565b6040516101bd91906119b1565b60405180910390f35b6101ce610552565b6040516101db91906119d9565b60405180910390f35b6101ec610558565b6040516101f991906119d9565b60405180910390f35b61021c600480360381019061021791906119f2565b610561565b60405161022991906119b1565b60405180910390f35b61023a61058f565b6040516102479190611a5d565b60405180910390f35b610258610597565b604051610265919061184f565b60405180910390f35b6102766105bb565b604051610283919061184f565b60405180910390f35b6102946105df565b6040516102a191906119d9565b60405180910390f35b6102b26105e4565b6040516102bf91906119d9565b60405180910390f35b6102e260048036038101906102dd9190611a76565b6105ed565b6040516102ef91906119d9565b60405180910390f35b610300610632565b005b61030a610645565b604051610317919061184f565b60405180910390f35b61032861066d565b60405161033591906118d8565b60405180910390f35b6103466106fd565b60405161035391906119d9565b60405180910390f35b61037660048036038101906103719190611959565b610739565b60405161038391906119b1565b60405180910390f35b6103a660048036038101906103a19190611a76565b61075b565b6040516103b391906118d8565b60405180910390f35b6103c461088e565b6040516103d191906119d9565b60405180910390f35b6103f460048036038101906103ef9190611aa1565b610894565b005b610410600480360381019061040b9190611acc565b610c25565b60405161041d91906119d9565b60405180910390f35b610440600480360381019061043b9190611aa1565b610ca7565b005b61045c60048036038101906104579190611a76565b610fb9565b005b61046661103d565b60405161047391906119d9565b60405180910390f35b7f000000000000000000000000000000000000000000000000000000000000000081565b6060600380546104af90611b37565b80601f01602080910402602001604051908101604052809291908181526020018280546104db90611b37565b80156105265780601f106104fd57610100808354040283529160200191610526565b820191905f5260205f20905b81548152906001019060200180831161050957829003601f168201915b5050505050905090565b5f5f61053a611044565b905061054781858561104b565b600191505092915050565b6103e881565b5f600254905090565b5f5f61056b611044565b905061057885828561105d565b6105838585856110f0565b60019150509392505050565b5f6012905090565b7f000000000000000000000000000000000000000000000000000000000000000081565b7f000000000000000000000000000000000000000000000000000000000000000081565b60fa81565b5f600654905090565b5f5f5f8373ffffffffffffffffffffffffffffffffffffffff1673ffffffffffffffffffffffffffffffffffffffff1681526020019081526020015f20549050919050565b61063a6111e0565b6106435f611267565b565b5f60055f9054906101000a900473ffffffffffffffffffffffffffffffffffffffff16905090565b60606004805461067c90611b37565b80601f01602080910402602001604051908101604052809291908181526020018280546106a890611b37565b80156106f35780601f106106ca576101008083540402835291602001916106f3565b820191905f5260205f20905b8154815290600101906020018083116106d657829003601f168201915b5050505050905090565b5f6103e8670de0b6b3a7640000610712610558565b61071c9190611bc1565b6107269190611bf1565b620f42406107349190611c32565b905090565b5f5f610743611044565b90506107508185856110f0565b600191505092915050565b60605f670de0b6b3a7640000610770846105ed565b61077a9190611bc1565b90506103e881106107c3576040518060400160405280600781526020017f6469616d6f6e6400000000000000000000000000000000000000000000000000815250915050610889565b60648110610809576040518060400160405280600481526020017f676f6c6400000000000000000000000000000000000000000000000000000000815250915050610889565b600a811061084f576040518060400160405280600681526020017f73696c7665720000000000000000000000000000000000000000000000000000815250915050610889565b6040518060400160405280600481526020017f6e6f6e65000000000000000000000000000000000000000000000000000000008152509150505b919050565b60065481565b5f81116108d6576040517f08c379a00000000000000000000000000000000000000000000000000000000081526004016108cd90611caf565b60405180910390fd5b5f61271060fa836108e79190611bf1565b6108f19190611bc1565b90505f81836109009190611ccd565b90505f6002826109109190611bc1565b90505f818361091f9190611ccd565b90505f61092a6106fd565b90505f81670de0b6b3a7640000866109429190611bf1565b61094c9190611bc1565b90505f8111610990576040517f08c379a000000000000000000000000000000000000000000000000000000000815260040161098790611d4a565b60405180910390fd5b7f000000000000000000000000000000000000000000000000000000000000000073ffffffffffffffffffffffffffffffffffffffff166323b872dd337f0000000000000000000000000000000000000000000000000000000000000000876040518463ffffffff1660e01b8152600401610a0d93929190611d68565b6020604051808303815f875af1158015610a29573d5f5f3e3d5ffd5b505050506040513d601f19601f82011682018060405250810190610a4d9190611dc7565b507f000000000000000000000000000000000000000000000000000000000000000073ffffffffffffffffffffffffffffffffffffffff166323b872dd337f0000000000000000000000000000000000000000000000000000000000000000896040518463ffffffff1660e01b8152600401610acb93929190611d68565b6020604051808303815f875af1158015610ae7573d5f5f3e3d5ffd5b505050506040513d601f19601f82011682018060405250810190610b0b9190611dc7565b507f000000000000000000000000000000000000000000000000000000000000000073ffffffffffffffffffffffffffffffffffffffff166323b872dd3330866040518463ffffffff1660e01b8152600401610b6993929190611d68565b6020604051808303815f875af1158015610b85573d5f5f3e3d5ffd5b505050506040513d601f19601f82011682018060405250810190610ba99190611dc7565b508260065f828254610bbb9190611c32565b92505081905550610bcc338261132a565b3373ffffffffffffffffffffffffffffffffffffffff167f8fafebcaf9d154343dad25669bfa277f4fbacd7ac6b0c4fed522580e040a0f338883604051610c14929190611df2565b60405180910390a250505050505050565b5f60015f8473ffffffffffffffffffffffffffffffffffffffff1673ffffffffffffffffffffffffffffffffffffffff1681526020019081526020015f205f8373ffffffffffffffffffffffffffffffffffffffff1673ffffffffffffffffffffffffffffffffffffffff1681526020019081526020015f2054905092915050565b5f8111610ce9576040517f08c379a0000000000000000000000000000000000000000000000000000000008152600401610ce090611e63565b60405180910390fd5b80610cf3336105ed565b1015610d34576040517f08c379a0000000000000000000000000000000000000000000000000000000008152600401610d2b90611ecb565b60405180910390fd5b5f610d3d6106fd565b90505f670de0b6b3a76400008284610d559190611bf1565b610d5f9190611bc1565b90505f61271060fa83610d729190611bf1565b610d7c9190611bc1565b90505f8183610d8b9190611ccd565b90508181610d999190611c32565b6006541015610ddd576040517f08c379a0000000000000000000000000000000000000000000000000000000008152600401610dd490611f33565b60405180910390fd5b610de733866113a9565b8181610df39190611c32565b60065f828254610e039190611ccd565b925050819055507f000000000000000000000000000000000000000000000000000000000000000073ffffffffffffffffffffffffffffffffffffffff1663a9059cbb33836040518363ffffffff1660e01b8152600401610e65929190611f51565b6020604051808303815f875af1158015610e81573d5f5f3e3d5ffd5b505050506040513d601f19601f82011682018060405250810190610ea59190611dc7565b507f000000000000000000000000000000000000000000000000000000000000000073ffffffffffffffffffffffffffffffffffffffff1663a9059cbb7f0000000000000000000000000000000000000000000000000000000000000000846040518363ffffffff1660e01b8152600401610f21929190611f51565b6020604051808303815f875af1158015610f3d573d5f5f3e3d5ffd5b505050506040513d601f19601f82011682018060405250810190610f619190611dc7565b503373ffffffffffffffffffffffffffffffffffffffff167f2dcf9433d75db0d8b1c172641f85e319ffe4ad22e108a95d1847ceb906e5195d8683604051610faa929190611df2565b60405180910390a25050505050565b610fc16111e0565b5f73ffffffffffffffffffffffffffffffffffffffff168173ffffffffffffffffffffffffffffffffffffffff1603611031575f6040517f1e4fbdf7000000000000000000000000000000000000000000000000000000008152600401611028919061184f565b60405180910390fd5b61103a81611267565b50565b620f424081565b5f33905090565b6110588383836001611428565b505050565b5f6110688484610c25565b90507fffffffffffffffffffffffffffffffffffffffffffffffffffffffffffffffff8110156110ea57818110156110db578281836040517ffb8f41b20000000000000000000000000000000000000000000000000000000081526004016110d293929190611f78565b60405180910390fd5b6110e984848484035f611428565b5b50505050565b5f73ffffffffffffffffffffffffffffffffffffffff168373ffffffffffffffffffffffffffffffffffffffff1603611160575f6040517f96c6fd1e000000000000000000000000000000000000000000000000000000008152600401611157919061184f565b60405180910390fd5b5f73ffffffffffffffffffffffffffffffffffffffff168273ffffffffffffffffffffffffffffffffffffffff16036111d0575f6040517fec442f050000000000000000000000000000000000000000000000000000000081526004016111c7919061184f565b60405180910390fd5b6111db8383836115f7565b505050565b6111e8611044565b73ffffffffffffffffffffffffffffffffffffffff16611206610645565b73ffffffffffffffffffffffffffffffffffffffff161461126557611229611044565b6040517f118cdaa700000000000000000000000000000000000000000000000000000000815260040161125c919061184f565b60405180910390fd5b565b5f60055f9054906101000a900473ffffffffffffffffffffffffffffffffffffffff1690508160055f6101000a81548173ffffffffffffffffffffffffffffffffffffffff021916908373ffffffffffffffffffffffffffffffffffffffff1602179055508173ffffffffffffffffffffffffffffffffffffffff168173ffffffffffffffffffffffffffffffffffffffff167f8be0079c531659141344cd1fd0a4f28419497f9722a3daafe3b4186f6b6457e060405160405180910390a35050565b5f73ffffffffffffffffffffffffffffffffffffffff168273ffffffffffffffffffffffffffffffffffffffff160361139a575f6040517fec442f05000000000000000000000000000000000000000000000000000000008152600401611391919061184f565b60405180910390fd5b6113a55f83836115f7565b5050565b5f73ffffffffffffffffffffffffffffffffffffffff168273ffffffffffffffffffffffffffffffffffffffff1603611419575f6040517f96c6fd1e000000000000000000000000000000000000000000000000000000008152600401611410919061184f565b60405180910390fd5b611424825f836115f7565b5050565b5f73ffffffffffffffffffffffffffffffffffffffff168473ffffffffffffffffffffffffffffffffffffffff1603611498575f6040517fe602df0500000000000000000000000000000000000000000000000000000000815260040161148f919061184f565b60405180910390fd5b5f73ffffffffffffffffffffffffffffffffffffffff168373ffffffffffffffffffffffffffffffffffffffff1603611508575f6040517f94280d620000000000000000000000000000000000000000000000000000000081526004016114ff919061184f565b60405180910390fd5b8160015f8673ffffffffffffffffffffffffffffffffffffffff1673ffffffffffffffffffffffffffffffffffffffff1681526020019081526020015f205f8573ffffffffffffffffffffffffffffffffffffffff1673ffffffffffffffffffffffffffffffffffffffff1681526020019081526020015f208190555080156115f1578273ffffffffffffffffffffffffffffffffffffffff168473ffffffffffffffffffffffffffffffffffffffff167f8c5be1e5ebec7d5bd14f71427d1e84f3dd0314c0f7b2291e5b200ac8c7c3b925846040516115e891906119d9565b60405180910390a35b50505050565b5f73ffffffffffffffffffffffffffffffffffffffff168373ffffffffffffffffffffffffffffffffffffffff1603611647578060025f82825461163b9190611c32565b92505081905550611715565b5f5f5f8573ffffffffffffffffffffffffffffffffffffffff1673ffffffffffffffffffffffffffffffffffffffff1681526020019081526020015f20549050818110156116d0578381836040517fe450d38c0000000000000000000000000000000000000000000000000000000081526004016116c793929190611f78565b60405180910390fd5b8181035f5f8673ffffffffffffffffffffffffffffffffffffffff1673ffffffffffffffffffffffffffffffffffffffff1681526020019081526020015f2081905550505b5f73ffffffffffffffffffffffffffffffffffffffff168273ffffffffffffffffffffffffffffffffffffffff160361175c578060025f82825403925050819055506117a6565b805f5f8473ffffffffffffffffffffffffffffffffffffffff1673ffffffffffffffffffffffffffffffffffffffff1681526020019081526020015f205f82825401925050819055505b8173ffffffffffffffffffffffffffffffffffffffff168373ffffffffffffffffffffffffffffffffffffffff167fddf252ad1be2c89b69c2b068fc378daa952ba7f163c4a11628f55a4df523b3ef8360405161180391906119d9565b60405180910390a3505050565b5f73ffffffffffffffffffffffffffffffffffffffff82169050919050565b5f61183982611810565b9050919050565b6118498161182f565b82525050565b5f6020820190506118625f830184611840565b92915050565b5f81519050919050565b5f82825260208201905092915050565b8281835e5f83830152505050565b5f601f19601f8301169050919050565b5f6118aa82611868565b6118b48185611872565b93506118c4818560208601611882565b6118cd81611890565b840191505092915050565b5f6020820190508181035f8301526118f081846118a0565b905092915050565b5f5ffd5b6119058161182f565b811461190f575f5ffd5b50565b5f81359050611920816118fc565b92915050565b5f819050919050565b61193881611926565b8114611942575f5ffd5b50565b5f813590506119538161192f565b92915050565b5f5f6040838503121561196f5761196e6118f8565b5b5f61197c85828601611912565b925050602061198d85828601611945565b9150509250929050565b5f8115159050919050565b6119ab81611997565b82525050565b5f6020820190506119c45f8301846119a2565b92915050565b6119d381611926565b82525050565b5f6020820190506119ec5f8301846119ca565b92915050565b5f5f5f60608486031215611a0957611a086118f8565b5b5f611a1686828701611912565b9350506020611a2786828701611912565b9250506040611a3886828701611945565b9150509250925092565b5f60ff82169050919050565b611a5781611a42565b82525050565b5f602082019050611a705f830184611a4e565b92915050565b5f60208284031215611a8b57611a8a6118f8565b5b5f611a9884828501611912565b91505092915050565b5f60208284031215611ab657611ab56118f8565b5b5f611ac384828501611945565b91505092915050565b5f5f60408385031215611ae257611ae16118f8565b5b5f611aef85828601611912565b9250506020611b0085828601611912565b9150509250929050565b7f4e487b71000000000000000000000000000000000000000000000000000000005f52602260045260245ffd5b5f6002820490506001821680611b4e57607f821691505b602082108103611b6157611b60611b0a565b5b50919050565b7f4e487b71000000000000000000000000000000000000000000000000000000005f52601260045260245ffd5b7f4e487b71000000000000000000000000000000000000000000000000000000005f52601160045260245ffd5b5f611bcb82611926565b9150611bd683611926565b925082611be657611be5611b67565b5b828204905092915050565b5f611bfb82611926565b9150611c0683611926565b9250828202611c1481611926565b91508282048414831517611c2b57611c2a611b94565b5b5092915050565b5f611c3c82611926565b9150611c4783611926565b9250828201905080821115611c5f57611c5e611b94565b5b92915050565b7f4d7573742073656e6420555344430000000000000000000000000000000000005f82015250565b5f611c99600e83611872565b9150611ca482611c65565b602082019050919050565b5f6020820190508181035f830152611cc681611c8d565b9050919050565b5f611cd782611926565b9150611ce283611926565b9250828203905081811115611cfa57611cf9611b94565b5b92915050565b7f416d6f756e7420746f6f20736d616c6c000000000000000000000000000000005f82015250565b5f611d34601083611872565b9150611d3f82611d00565b602082019050919050565b5f6020820190508181035f830152611d6181611d28565b9050919050565b5f606082019050611d7b5f830186611840565b611d886020830185611840565b611d9560408301846119ca565b949350505050565b611da681611997565b8114611db0575f5ffd5b50565b5f81519050611dc181611d9d565b92915050565b5f60208284031215611ddc57611ddb6118f8565b5b5f611de984828501611db3565b91505092915050565b5f604082019050611e055f8301856119ca565b611e1260208301846119ca565b9392505050565b7f4d7573742073656c6c20746f6b656e73000000000000000000000000000000005f82015250565b5f611e4d601083611872565b9150611e5882611e19565b602082019050919050565b5f6020820190508181035f830152611e7a81611e41565b9050919050565b7f496e73756666696369656e742062616c616e63650000000000000000000000005f82015250565b5f611eb5601483611872565b9150611ec082611e81565b602082019050919050565b5f6020820190508181035f830152611ee281611ea9565b9050919050565b7f496e73756666696369656e7420726573657276650000000000000000000000005f82015250565b5f611f1d601483611872565b9150611f2882611ee9565b602082019050919050565b5f6020820190508181035f830152611f4a81611f11565b9050919050565b5f604082019050611f645f830185611840565b611f7160208301846119ca565b9392505050565b5f606082019050611f8b5f830186611840565b611f9860208301856119ca565b611fa560408301846119ca565b94935050505056fea2646970667358221220cd794ddb879f8843737ff8ecd1e5c3b2f2f67086c263cc090b55ba877d2c73fd64736f6c634300081e0033","linkReferences":{}},"methodIdentifiers":{"BASE_PRICE()":"f86325ed","PLATFORM_FEE_BPS()":"539aa77f","PRICE_SLOPE()":"180fac98","accessTier(address)":"b7caec87","allowance(address,address)":"dd62ed3e","approve(address,uint256)":"095ea7b3","balanceOf(address)":"70a08231","buy(uint256)":"d96a094a","creator()":"02d05d3f","currentPrice()":"9d1b464a","decimals()":"313ce567","getReserve()":"59bf5d39","name()":"06fdde03","owner()":"8da5cb5b","platform()":"4bde38c8","renounceOwnership()":"715018a6","reserve()":"cd3293de","sell(uint256)":"e4849b32","symbol()":"95d89b41","totalSupply()":"18160ddd","transfer(address,uint256)":"a9059cbb","transferFrom(address,address,uint256)":"23b872dd","transferOwnership(address)":"f2fde38b","usdc()":"3e413bee"},"id":6}