{"abi":[{"type":"constructor","inputs":[{"name":"_platform","type":"address","internalType":"address"}],"stateMutability":"nonpayable"},{"type":"function","name":"allTokens","inputs":[{"name":"","type":"uint256","internalType":"uint256"}],"outputs":[{"name":"","type":"address","internalType":"address"}],"stateMutability":"view"},{"type":"function","name":"creatorToken","inputs":[{"name":"","type":"address","internalType":"address"}],"outputs":[{"name":"","type":"address","internalType":"address"}],"stateMutability":"view"},{"type":"function","name":"platform","inputs":[],"outputs":[{"name":"","type":"address","internalType":"address"}],"stateMutability":"view"},{"type":"function","name":"registerToken","inputs":[{"name":"creator","type":"address","internalType":"address"},{"name":"token","type":"address","internalType":"address"},{"name":"name","type":"string","internalType":"string"},{"name":"symbol","type":"string","internalType":"string"}],"outputs":[],"stateMutability":"nonpayable"},{"type":"function","name":"totalTokens","inputs":[],"outputs":[{"name":"","type":"uint256","internalType":"uint256"}],"stateMutability":"view"},{"type":"event","name":"TokenRegistered","inputs":[{"name":"creator","type":"address","indexed":true,"internalType":"address"},{"name":"token","type":"address","indexed":true,"internalType":"address"},{"name":"name","type":"string","indexed":false,"internalType":"string"},{"name":"symbol","type":"string","indexed":false,"internalType":"string"}],"anonymous":false}],"bytecode":{"object":"0x60a060405234801561000f575f5ffd5b5060405161083d38038061083d833981810160405281019061003191906100c9565b8073ffffffffffffffffffffffffffffffffffffffff1660808173ffffffffffffffffffffffffffffffffffffffff1681525050506100f4565b5f5ffd5b5f73ffffffffffffffffffffffffffffffffffffffff82169050919050565b5f6100988261006f565b9050919050565b6100a88161008e565b81146100b2575f5ffd5b50565b5f815190506100c38161009f565b92915050565b5f602082840312156100de576100dd61006b565b5b5f6100eb848285016100b5565b91505092915050565b60805161073161010c5f395f61011301526107315ff3fe608060405234801561000f575f5ffd5b5060043610610055575f3560e01c80634bde38c814610059578063560a150e14610077578063634282af146100935780637e1c0c09146100c3578063aa85d946146100e1575b5f5ffd5b610061610111565b60405161006e9190610400565b60405180910390f35b610091600480360381019061008c91906104ac565b610135565b005b6100ad60048036038101906100a89190610582565b61034c565b6040516100ba9190610400565b60405180910390f35b6100cb610386565b6040516100d891906105bc565b60405180910390f35b6100fb60048036038101906100f691906105d5565b610391565b6040516101089190610400565b60405180910390f35b7f000000000000000000000000000000000000000000000000000000000000000081565b5f73ffffffffffffffffffffffffffffffffffffffff1660015f8873ffffffffffffffffffffffffffffffffffffffff1673ffffffffffffffffffffffffffffffffffffffff1681526020019081526020015f205f9054906101000a900473ffffffffffffffffffffffffffffffffffffffff1673ffffffffffffffffffffffffffffffffffffffff16146101ff576040517f08c379a00000000000000000000000000000000000000000000000000000000081526004016101f69061065a565b60405180910390fd5b8460015f8873ffffffffffffffffffffffffffffffffffffffff1673ffffffffffffffffffffffffffffffffffffffff1681526020019081526020015f205f6101000a81548173ffffffffffffffffffffffffffffffffffffffff021916908373ffffffffffffffffffffffffffffffffffffffff1602179055505f85908060018154018082558091505060019003905f5260205f20015f9091909190916101000a81548173ffffffffffffffffffffffffffffffffffffffff021916908373ffffffffffffffffffffffffffffffffffffffff1602179055508473ffffffffffffffffffffffffffffffffffffffff168673ffffffffffffffffffffffffffffffffffffffff167ffbe16c292428cdc3e66e97f954e91cc4f49b472d24989df1b2cdc27f295a70678686868660405161033c94939291906106c2565b60405180910390a3505050505050565b5f818154811061035a575f80fd5b905f5260205f20015f915054906101000a900473ffffffffffffffffffffffffffffffffffffffff1681565b5f5f80549050905090565b6001602052805f5260405f205f915054906101000a900473ffffffffffffffffffffffffffffffffffffffff1681565b5f73ffffffffffffffffffffffffffffffffffffffff82169050919050565b5f6103ea826103c1565b9050919050565b6103fa816103e0565b82525050565b5f6020820190506104135f8301846103f1565b92915050565b5f5ffd5b5f5ffd5b61042a816103e0565b8114610434575f5ffd5b50565b5f8135905061044581610421565b92915050565b5f5ffd5b5f5ffd5b5f5ffd5b5f5f83601f84011261046c5761046b61044b565b5b8235905067ffffffffffffffff8111156104895761048861044f565b5b6020830191508360018202830111156104a5576104a4610453565b5b9250929050565b5f5f5f5f5f5f608087890312156104c6576104c5610419565b5b5f6104d389828a01610437565b96505060206104e489828a01610437565b955050604087013567ffffffffffffffff8111156105055761050461041d565b5b61051189828a01610457565b9450945050606087013567ffffffffffffffff8111156105345761053361041d565b5b61054089828a01610457565b92509250509295509295509295565b5f819050919050565b6105618161054f565b811461056b575f5ffd5b50565b5f8135905061057c81610558565b92915050565b5f6020828403121561059757610596610419565b5b5f6105a48482850161056e565b91505092915050565b6105b68161054f565b82525050565b5f6020820190506105cf5f8301846105ad565b92915050565b5f602082840312156105ea576105e9610419565b5b5f6105f784828501610437565b91505092915050565b5f82825260208201905092915050565b7f416c7265616479207265676973746572656400000000000000000000000000005f82015250565b5f610644601283610600565b915061064f82610610565b602082019050919050565b5f6020820190508181035f83015261067181610638565b9050919050565b828183375f83830152505050565b5f601f19601f8301169050919050565b5f6106a18385610600565b93506106ae838584610678565b6106b783610686565b840190509392505050565b5f6040820190508181035f8301526106db818688610696565b905081810360208301526106f0818486610696565b90509594505050505056fea2646970667358221220e4792fad24eb9bac7e29f69295049df878161044c0ca6f7466114380ab49e09f64736f6c634300081e0033","linkReferences":{}},"methodIdentifiers":{"allTokens(uint256)":"634282af","creatorToken(address)":"aa85d946","platform()":"4bde38c8","registerToken(address,address,string,string)":"560a150e","totalTokens()":"7e1c0c09"},"id":16}